:100000000C943C010C9464010C9464010C94640104
:100010000C9464010C9464010C9464010C946401CC
:100020000C9464010C9464010C9464010C946401BC
:100030000C9464010C9464010C9464010C946401AC
:100040000C945C180C9464010C94CC180C94A618B5
:100050000C9464010C9464010C9464010C9464018C
:100060000C9464010C94640100000000240027003B
:100070002A00EAA92085F0A96085F3A5434A4A4AE7
:100080004A290709C085F2A00084F188B1F185F101
:100090002093FE2089FE2058FC20A209A900852576
:1000A0002022FCA52585F585F6209009A900852448
:1000B000A52520E3FDE624207A09200409A914855A
:1000C00024A52520E3FDE624A54309808543207A65
:1000D00009200409A543297F8543E625A525C910E4
:1000E00090BEA9008524A91285252022FCA21420F7
:1000F0006609206109A90A8524A5F720F808A91432
:100100008524205C09A91E8524A5F820F808A90AE1
:10011000852420CA0885F520F808A91E852420CA50
:100120000885F620F808208C094CB709A5F785F555
:10013000A5F885F620900968684CB709200CFDC920
:100140009BF0E9C9A1F020C9E1900338E920C9C1B9
:100150009004C9C7900BC9B090E2C9BAB0DE290FAC
:100160006038E907290F60A9FF60C9FFF0034CE37D
:10017000FDA9A14CEDFDA200B025AD05103020ADCC
:10018000041029F0C9F0D017AD0410290FF0108524
:10019000F9BD0510098020EDFDE8E4F9D0F3604CCD
:1001A0006609BCCECFA0D6CFCCD5CDC5BE00C3C1CD
:1001B000D2C4A0B1BA00C4C1CEA0DDDBA0D6CFCCE2
:1001C000D5CDC5A0D3C5CCC5C3D4CFD28D00A9B2DF
:1001D0008D4109A20C4C6609BD3009F00E20EDFDE1
:1001E000E8D0F5A9008544A910854560A90185429C
:1001F000207109A9028546A90085474CF000A9078E
:10020000D002A9068542207109A5F58546A5F68587
:10021000474CF000A905854220710920F000AD008F
:100220001085F7AD011085F860A90085F16CF1002B
:1002300000000000250028002B000404040404042E
:100240000404020202020202030303030303010285
:100250000408102040800102040810200102040854
:100260001020000000080002010000030407000045
:10027000000000000000FB1A11241FBECFEFD8E0E1
:10028000DEBFCDBF11E0A0E0B1E0E0E2FDE302C0DF
:1002900005900D92A03DB107D9F724E0A0EDB1E0A3
:1002A00001C01D92A53EB207E1F711E0CCE3D1E019
:1002B00004C02197FE010E94511ECB33D107C9F71C
:1002C0000E942B1B0C948E1E0C940000CF93DF9386
:1002D000EC01E0911B04F0911C04309749F489E093
:1002E00090E0F0E0E0E0F983E883DF91CF910895BA
:1002F00080818823A1F320911D0430911E04858103
:1003000096812817390759F7A181A0931A04B0E004
:10031000AD5DBE4F8C9180FDE2CF90E080E0E3CFF9
:1003200090E0FC01EE59FD4F2491FC01E25BFD4F92
:100330003491FC01E65CFD4FE491EE23C9F02223E9
:1003400039F0233001F1A8F4213019F1223029F1DC
:10035000F0E0EE0FFF1FE05DFD4FA591B4918FB768
:10036000F894EC91611126C030953E233C938FBFE9
:1003700008952730A9F02830C9F0243049F780913A
:1003800080008F7D03C0809180008F7780938000F4
:10039000DFCF84B58F7784BDDBCF84B58F7DFBCF76
:1003A0008091B0008F778093B000D2CF8091B00061
:1003B0008F7DF9CF3E2BDACF2FB7F89460911604DA
:1003C0007091170480911804909119042FBF08951B
:1003D000AF92BF92CF92DF92EF92FF920F931F9353
:1003E000CF93DF936C017B018B01040F151FEB0191
:1003F0005E01AE18BF08C017D10759F06991D60148
:10040000ED91FC910190F081E02DC6010995892BB9
:1004100079F7C501DF91CF911F910F91FF90EF9078
:10042000DF90CF90BF90AF900895FC01538D448D25
:10043000252F30E0842F90E0821B930B541710F08F
:10044000CF96089501970895FC01918D828D98179C
:1004500061F0A28DAE0FBF2FB11D5D968C91928D74
:100460009F5F9F73928F90E008958FEF9FEF0895A5
:10047000FC01918D828D981731F0828DE80FF11D6E
:10048000858D90E008958FEF9FEF0895FC01918D89
:10049000228D892F90E0805C9F4F821B91098F7382
:1004A0009927089581E494E00E94460221E0892B77
:1004B00009F420E0822F089580E090E0892B29F054
:1004C0000E94520281110C9400000895FC01A48D39
:1004D000A80FB92FB11DA35ABF4F2C91848D90E066
:1004E00001968F739927848FA689B7892C93A08949
:1004F000B1898C91837080648C93938D848D9813D3
:1005000006C00288F389E02D80818F7D8083089565
:10051000EF92FF920F931F93CF93DF93EC0181E053
:10052000888F9B8D8C8D98131AC0E889F9898081FA
:1005300085FF15C09FB7F894EE89FF896083E8892D
:10054000F98980818370806480839FBF81E090E01F
:10055000DF91CF911F910F91FF90EF900895F62EAC
:100560000B8D10E00F5F1F4F0F731127E02E8C8D46
:100570008E110CC00FB607FCFACFE889F98980818B
:1005800085FFF5CFCE010E946602F1CFEB8DEC0F17
:10059000FD2FF11DE35AFF4FF0829FB7F8940B8FA8
:1005A000EA89FB8980818062CFCFCF93DF93EC0112
:1005B000888D8823B9F0AA89BB89E889F9898C914B
:1005C00085FD03C0808186FD0DC00FB607FCF7CF07
:1005D0008C9185FFF2CF808185FFEDCFCE010E9407
:1005E0006602E9CFDF91CF9108958EBD0DB407FE6D
:1005F000FDCF0895FF920F931F93CF93DF93082FA2
:10060000F62E142FCEEDD4E060E088810E94900198
:1006100080E00E94F5028F2D0E94F502802F8460F9
:100620000E94F502812F0E94F50261E08881DF912E
:10063000CF911F910F91FF900C9490011F93CF9336
:10064000DF93EC01162F472FBC0188E00E94FA02CD
:10065000BE016F5F7F4F412F88E0DF91CF911F91E7
:100660000C94FA02DF92EF92FF920F931F93CF93B5
:10067000DF93F82EE62ED72EEA01890160E0809103
:10068000DE040E9490018D2D0E94F5028E2D0E94A5
:10069000F5028F2D84600E94F502209749F00C0F1F
:1006A0001D1FC017D107B1F089910E94F502F9CF43
:1006B000D0E0C0E0C017D10769F03399FECF42986F
:1006C000429842984298429889B1429A0E94F50213
:1006D0002196F0CF61E08091DE04DF91CF911F91F0
:1006E0000F91FF90EF90DF900C9490011EBC0DB421
:1006F00007FEFDCF8EB508950F931F93CF93DF9321
:10070000182F062FCEEDD4E060E088810E94900182
:1007100080E00E94F502802F0E94F502812F0E9446
:10072000F5020E947603182F61E088810E949001F3
:10073000812FDF91CF911F910F9108950F931F93F8
:10074000CF938C01BC0188E00E947C03C82FB801C4
:100750006F5F7F4F88E00E947C032C2F30E0322FA8
:100760002227820F932F911DCF911F910F910895F2
:10077000482F61E070E088E00E94FA0261E070E0DA
:1007800088E00E947C038111F9CF0895CF92DF9217
:10079000EF92FF920F931F93CF93DF93EC018B01A6
:1007A00088E290E00E949E037C0160E08091DE047C
:1007B0000E9490018F2D0E94F5028E2D0E94F5025D
:1007C00088E10E94F5026E01C00ED11E209759F5F6
:1007D0008FEF8AB9D0E0C0E0C017D10771F00E9456
:1007E00076033199FECF8BB98BB9409840984098E9
:1007F00040984098409A2196EFCF1BB81AB861E014
:100800008091DE040E949001B8016E0D7F1D88E288
:1008100090E0DF91CF911F910F91FF90EF90DF90CB
:10082000CF900C941E03CC16DD0649F30E9476038C
:100830008993F9CF2FEF2AB93199FECF8BB98BB9B4
:1008400040984098409840984098409A3199FECFFF
:100850009BB99BB940984098409840984098409ADE
:100860001BB81AB808958EBD0DB407FEFDCF8EB526
:1008700008951F93CF93DF930E94DC01EB018FEF6C
:100880000E943304182F8F3F39F00E94DC016C1B4B
:100890007D0B643F714098F381E090E01F3F11F0C1
:1008A00090E080E0DF91CF911F9108959C013E5F21
:1008B000FC0140814EBD0DB407FEFDCFFC0141811E
:1008C0004EBD0DB407FEFDCF02968217930781F748
:1008D0008FEF0E9433048FEF0E9433048FEF0E944A
:1008E0003304282F2F7181E090E0253011F090E043
:1008F00080E0089585B1876085B98FEF0C9433044B
:10090000CF93DF9385B190911A04911111C09BEFA1
:10091000892385B98FEF0E9433040E943904EC01CA
:10092000892B41F40E947A04CE01DF91CF91089582
:100930009DEFEECFC1E0D0E0F7CFFF920F931F9372
:10094000CF93DF93C82FD42F152F062FF72E87FFB5
:1009500009C040E050E0BA0187E30E949D04823064
:1009600048F5CF77CC3061F58C2F80640E9433043A
:100970008F2D0E943304802F0E943304812F0E9408
:1009800033048D2F0E94330485E9CC2321F087E8BE
:10099000C83009F081E00E943304CC3019F48FEFA5
:1009A0000E943304CAE08FEF0E94330487FF02C025
:1009B000C150C9F7DF91CF911F910F91FF9008951A
:1009C0000E947A040E948004892B71F68FEFF2CF87
:1009D000CF92DF92EF92FF920F931F93CF93DF930B
:1009E000082FD92EE90180911A0490E0FC01ED5DF9
:1009F000FE4F208120FD63C0875F9B4FFC018081FB
:100A000084FD07C089E0440F551F661F771F8A9534
:100A1000D1F711E1C230D10508F012E1812F0E9417
:100A20009D04811119C0CC24CA940E94DC017B0171
:100A30008FEF0E9433048F3FF9F40E94DC016E199E
:100A40007F09683C7105A4F3123131F440E050E0B5
:100A5000BA018CE00E949D040E947A0481E090E03B
:100A6000CD2B09F480E0DF91CF911F910F91FF9082
:100A7000EF90DF90CF9008958E3F31F7E02FFD2D5E
:100A80007F018EEFF81ACEBC0DB407FEFDCF8EB5F8
:100A90008083CEBC0DB407FEFDCF8EB58183329628
:100AA000EE16FF0681F78FEF0E9433048FEF0E944E
:100AB00033040E2DDF2C219709F0B7CFC5CF83E08B
:100AC00090E0D1CF4F925F926F927F92AF92BF92A0
:100AD000CF92DF92EF92FF920F931F93CF93DF930A
:100AE00000D000D0CDB7DEB7E0911A04F0E0ED5DA4
:100AF000FE4F808181FF14C080810F900F900F9076
:100B00000F90DF91CF911F910F91FF90EF90DF90A9
:100B1000CF90BF90AF907F906F905F904F9008956F
:100B2000F89497E095B984B1876084B995B980E568
:100B30008CBD81E08DBD84B18F6284B98FE385B9AE
:100B400078948CB583608CBD1AE08FEF0E943304DB
:100B50001150D9F705E040E050E0BA0180E00E9472
:100B60009D04182F811104C00150A9F7F12C85C0F4
:100B70008130E1F70E94DC012B016B014AEA51E070
:100B800060E070E088E00E949D04813009F048C078
:100B90008E010F5F1F4F5E0185E0A80EB11C78012A
:100BA0008FEF0E943304F70181937F01EA15FB0563
:100BB000B9F78B818130D1F68C818A3AB9F60E94DF
:100BC000DC016C197D09683E73404CF440E050E054
:100BD00060E070E489EA0E949D048111F0CF0E94D8
:100BE000DC0164197509683E73400CF0BFCF40E02A
:100BF00050E0BA018AE30E949D048111B7CF8FEFC4
:100C00000E943304F80181938F01EE16FF06B9F7B5
:100C1000898128E0F22E86FF30C088E1F82E2DC0B1
:100C200040E050E0BA0189EA0E949D04FF24F39459
:100C3000823018F494E0F92E19EA0E94DC016C1954
:100C40007D09683E734044F440E050E0BA01812FD2
:100C50000E949D048111F1CF0E94DC016419750985
:100C6000683E73400CF082CF40E052E060E070E0FC
:100C700080E10E949D04811179CFE0911A040E2F2A
:100C800010E0F801E75FFB4FF0820E947A04F80160
:100C9000ED5DFE4F8081FF2061F08E7F80838CB5FB
:100CA0008C7F8CBD2C98E0911A04F0E0ED5DFE4F36
:100CB00023CF81608083F6CFCF93DF93EC01E8816F
:100CC000F981309779F0DF019D012F5F3F4F8C91C3
:100CD0008132E0F0D9018A33B9F7208180ED820FAB
:100CE0008A3018F08FEF9FEF0EC03296AE17BF0715
:100CF000C9F7022E000C330BC901C0978230910551
:100D00008CF7B983A883DF91CF91089590E080E0BC
:100D1000FACF0F931F93FC019A01AB0122503109C6
:100D20004109510983899489A589B6890297A10946
:100D3000B109281739074A075B0778F4A185B285FE
:100D40000E94461E07A110A521A532A5600F711FA4
:100D5000821F931F1F910F91089560E070E0CB01F7
:100D6000F9CFFC016281738190E080E0982F872F9A
:100D7000762F66272181622B982F872F762F662763
:100D80002081622B08952FEF2AB93199FECF1BB82D
:100D90001BB840984098409840984098409A0197D6
:100DA000A1F71BB81AB8089580910F049091100410
:100DB000B0E0A0E029E0880F991FAA1FBB1F2A9569
:100DC000D1F78093040490930504A0930604B09394
:100DD00007040895823009F180E790910B0489237C
:100DE00090E0B0E0A0E02CE0880F991FAA1FBB1F85
:100DF0002A95D1F740910F045091100470E060E003
:100E0000842B952BA62BB72B809304049093050479
:100E1000A0930604B0930704089580EFDECF262F39
:100E200030E044E0359527954A95E1F72A3050F4B3
:100E3000205DFC0120876F706A3030F4605DFC013A
:100E400061870895295CF5CF695CF9CF3399FECFAE
:100E50004298429842984298429889B1429A08959D
:100E6000CF930E94260780930B040E942607C82F69
:100E70000E942607982F8C2F9093D1018093D00148
:100E80000E942607C82F0E942607982F8C2F909328
:100E9000100480930F04CF9108953199FECF9FEFF6
:100EA0009AB98BB98BB9409840984098409840982F
:100EB000409A1BB81AB8089580910B0487FF09C0A7
:100EC00080910804811108C088E20E944D0780E0EB
:100ED000089580910304F6CF81E008950F931F9346
:100EE000CF93DF9300D0CDB7DEB78C017A836983CF
:100EF000CE0101960E945C0697FD1EC0880F991FC7
:100F0000FC01E35CFB4F0190F081E02D309709F08C
:100F100010820115110511F0F8011082835C9B4FBE
:100F2000FC011183008390E080E00F900F90DF912F
:100F3000CF911F910F9108958BE090E0F6CFCF9263
:100F4000DF92EF92FF920F931F93CF93DF938C0169
:100F50006A017B01E90180911A0490E0FC01ED5DDA
:100F6000FE4F208120FD65C0208122FD65C0875F86
:100F70009B4FFC01808184FD07C099E0CC0CDD1CF7
:100F8000EE1CFF1C9A95D1F7C130D10559F5B70178
:100F9000A60188E10E949D04882391F0C1E0D0E081
:100FA0000E947A0481E090E0CD2B09F480E0DF918B
:100FB000CF911F910F91FF90EF90DF90CF90089508
:100FC0000E943904892B51F38EEF0E943304C8012B
:100FD0000E94560431E020E0892B09F030E0C32F55
:100FE000D22FDECF8C7031F0AE0170E060E087E987
:100FF0000E949D04B701A60189E10E949D04811110
:10100000CFCF0E943904892B59F08CEF0E94330412
:10101000C8010E945604892B19F01E5F219789F799
:101020000E943904892B09F4B9CF8DEF0E94330453
:10103000B7CF83E090E0BBCF82E0FCCF8F929F924E
:10104000AF92BF92CF92DF92EF92FF920F931F93D6
:10105000CF93DF93EC014BA55CA56DA57EA58C011C
:10106000015D1F4F898180931A0421E030E0C8019F
:101070000E949F07892B61F51B824BA55CA56DA57E
:101080007EA58F89988DA98DBA8DCF8CD8A0E9A027
:10109000FAA04A015B018C189D08AE08BF087501D3
:1010A0006401C816D906EA06FB0678F42A812230C4
:1010B00061F4298120931A04480F591F6A1F7B1F6E
:1010C00021E030E0C8010E949F0790E080E002C06C
:1010D00081E090E0DF91CF911F910F91FF90EF9011
:1010E000DF90CF90BF90AF909F908F900895FC01BC
:1010F000238121110C941E0890E080E00895CF9286
:10110000DF92EF92FF920F931F93CF93DF93EC0147
:101110006A017B018BA59CA5ADA5BEA510E000E0F2
:101120008C159D05AE05BF05E9F0CE010E9477083C
:101130008C01892BB9F4898180931A0421E030E075
:10114000B701A601CE018F960E94E804892B31F0E9
:1011500001E010E0CC24CA94DC2C7601CBA6DCA6FE
:10116000EDA6FEA6C801DF91CF911F910F91FF90D0
:10117000EF90DF90CF900895AF92BF92CF92DF9221
:10118000EF92FF920F931F93CF93DF93423051055D
:101190006105710508F4A9C0FC010389148925893A
:1011A0003689401751076207730708F09EC06A012D
:1011B0007B01EC018081823009F457C0833009F44F
:1011C00071C0813009F091C08A0116950795040F0E
:1011D000151FC801892F99278695478D50A161A1B8
:1011E00072A1480F591F611D711DCF010E947F0818
:1011F000892B71F06FEF7FEFCB01DF91CF911F91C2
:101200000F91FF90EF90DF90CF90BF90AF90089537
:101210005801FFEFAF1ABF0A1170FE01E00FF11F76
:1012200017A5C501892F992786954F8D58A169A1CA
:101230007AA1480F591F611D711DCE010E947F08C0
:10124000892BC1F681E0B822CA0DDB1D6FA5762F70
:10125000612FC0FE08C0E4E076956795EA95E1F756
:1012600090E080E0CACF7F70FBCF77276F2D5E2D97
:101270004D2D878D90A1A1A1B2A1480F591F6A1FC2
:101280007B1FCF010E947F08892B09F0B3CFCC0CC4
:10129000DD1CE894C0F8E1E0DE22CC0DDD1D6FA579
:1012A00078A9DECF878D90A1A1A1B2A137E0769574
:1012B0006795579547953A95D1F7480F591F6A1F7B
:1012C0007B1FCF010E947F08892B09F093CFAF9637
:1012D000C601880F991F880F991F8C7F91708C0F02
:1012E0009D1F0E94B1069F7088CF61E070E080E092
:1012F00090E083CF8F929F92AF92BF92CF92DF9276
:10130000EF92FF920F931F93CF93DF938C01FC0119
:10131000C081D18116861786108A118AC680D7802F
:10132000E084F184C114D104E104F104D1F5888191
:10133000833040F08BA19CA1ADA1BEA10097A10577
:10134000B10589F58F819885892B79F482E090E049
:10135000DF91CF911F910F91FF90EF90DF90CF9091
:10136000BF90AF909F908F9008958BA19CA1ADA14D
:10137000BEA1F801868B978BA08FB18FF801C28A2E
:10138000D38AE48AF58A86899789A08DB18D892BC5
:101390008A2B8B2BD9F2AF96D38FC28F90E080E04F
:1013A000D7CFD701C60189849A84B12CA12C29E01A
:1013B000880C991CAA1CBB1C2A95D1F76C017D01D5
:1013C000B701A60181149104A104B10449F0CE0132
:1013D0000E948906F801668B778B808F918FCECF24
:1013E000F801808191810E94BC086B017C01FFEFB4
:1013F000CF16DF06EF06FF0689F082E0C816D1049B
:10140000E104F10408F4A2CF8B899C89AD89BE89DF
:10141000C816D906EA06FB0698F298CF81E090E05C
:1014200097CF2F923F924F925F926F927F928F92BF
:101430009F92AF92BF92CF92DF92EF92FF920F9363
:101440001F93CF93DF9300D000D000D0CDB7DEB78D
:101450009E838D836A017B0128013901DC018C9117
:10146000823009F497C0833009F4B6C0813009F0A6
:10147000F4C08A0116950795040F151FC801892F1E
:10148000992786955F964D915D916D917C9192978C
:10149000480F591F611D711DCD010E947F085C011D
:1014A000892B09F056C02D803E80BFE22B0E311CE7
:1014B0004801EFEF8E1A9E0A1170F101E00FF11F43
:1014C000842DA701960121703327442755272983AE
:1014D0003A834B835C83C0FE07C080818F7040E1FC
:1014E000449E90011124822B808381E0AD81BE81D6
:1014F00013968C9313975F964D915D916D917C91AE
:101500009297C401892F99278695480F591F611D0D
:10151000711DCD010E947F085C01892BD1F4B1E0DF
:101520009B22F101E80DF91D29813A814B815C81F3
:10153000232B242B252B39F164E076946794579460
:1015400047946A95D1F7408281E0AD81BE811396C0
:101550008C93C50126960FB6F894DEBF0FBECDBFA3
:10156000DF91CF911F910F91FF90EF90DF90CF907F
:10157000BF90AF909F908F907F906F905F904F90B3
:101580003F902F9008958081807F352D3F70432EAE
:10159000482AD9CF77276F2D5E2D4D2DED81FE8105
:1015A000878D90A1A1A1B2A1480F591F6A1F7B1F6F
:1015B000CF010E947F085C01892B59F6ED81FE81E5
:1015C000BF96CC0CDD1CE894C0F821E0D222EC0DD3
:1015D000FD1D00835182B8CFED81FE81878D90A1E2
:1015E000A1A1B2A137E076956795579547953A95B1
:1015F000D1F7480F591F6A1F7B1FCF010E947F0838
:101600005C01892B09F0A5CFFFE07F228D819E81AF
:101610008F96CC0CDD1CCC0CDD1C2CEFC22221E003
:10162000D222C80ED91EC6010E94B10666277727AE
:101630008827907F462A572A682A792AD6014C9211
:1016400011965C92119712966C92129713967C9257
:1016500081E0ED81FE8183837CCF82E0A82EB12CD6
:1016600078CF4F925F926F927F928F929F92AF92BC
:10167000BF92CF92DF92EF92FF920F931F93CF937F
:10168000DF938C012A013B01FC01C081D18141140F
:1016900051046104710409F58B849C84AD84BE847B
:1016A00081149104A104B10409F44DC08B899C8973
:1016B000AD89BE8988169906AA06BB0608F043C004
:1016C0008F859889A989BA89892B8A2B8B2B09F058
:1016D0003FC0C12CD12C760116C0CE010E94BC089F
:1016E0006B017C01F2E0CF16D104E104F10408F4AF
:1016F0000CC12FEFC216D206E206F206B9F4CC24D2
:10170000CA94DC2C7601C701B601DF91CF911F91FD
:101710000F91FF90EF90DF90CF90BF90AF909F9090
:101720008F907F906F905F904F9008958B899C89E8
:10173000AD89BE8953014201C816D906EA06FB06E7
:1017400008F0BECFE0CF812C912C54018394B8CF08
:1017500084149504A604B70409F041C0750164011E
:101760008FEFC81AD80AE80AF80A8B899C89AD89D4
:10177000BE89C816D906EA06FB0628F022E0C22E6A
:10178000D12CE12CF12CB701A601F80180819181C7
:101790000E94BC08613071058105910509F4B5C04E
:1017A0006F3FFFEF7F078F079F0709F4A8CF672BD5
:1017B000682B692B09F44DC08B859C85AD85BE8552
:1017C00082309105A105B10550F04B895C896D8986
:1017D0007E8984179507A607B70708F478C07501B6
:1017E00064012FEFC21AD20AE20AF20A8B899C899D
:1017F000AD89BE89C816D906EA06FB0660F082E00C
:1018000088169104A104B10408F463CF92E0C92EB4
:10181000D12CE12CF12CB701A601F8018081918136
:101820000E94BC086115710581059105B9F0613010
:1018300071058105910509F468C06F3F7F4F8F4F97
:101840009F4F09F45CCFC814D904EA04FB0449F69D
:1018500040CFC114D104E104F10409F222E0C21620
:10186000D104E104F10408F450C08B899C89AD894E
:10187000BE89C816D906EA06FB0608F046C00FEF77
:101880001FEF9801B701A601CE010E94110A00972F
:10189000C9F54114510461047104E1F4CB86DC867E
:1018A000ED86FE868F859889A989BA894B895C89DE
:1018B0006D897E894250510961097109481759079C
:1018C0006A077B0738F58C8181608C831CCF4C01C3
:1018D0005D0185CF82E04816510461047104A8F0CF
:1018E0008B899C89AD89BE89481659066A067B0694
:1018F00060F497018601B301A201CE010E94110A92
:10190000009761F2019709F4FACEC12CD12C76012F
:10191000C394F9CE0197A109B1098F87988BA98B40
:10192000BA8BD1CF4F925F926F927F928F929F929C
:10193000AF92BF92CF92DF92EF92FF920F931F93DD
:10194000CF93DF9300D000D000D0CDB7DEB76B01CE
:101950007C01CE0101960E9466018C01892B09F061
:10196000F4C000912A0410E00115110509F0EDC042
:101970008091250490912604A0912704B091280419
:101980008C159D05AE05BF0530F42091290421FD7D
:1019900002C06C017D0140902B0450902C0460909B
:1019A0002D0470902E0410922B0410922C0410928F
:1019B0002D0410922E04C114D104E104F10439F471
:1019C00080E090E0DC01C12CD12C760180C0E9815F
:1019D000FA8181849284B12CA12C39E0880C991C65
:1019E000AA1CBB1C3A95D1F741145104610471043F
:1019F00009F48AC081E0481A510861087108C701DA
:101A0000B6016150710981099109A50194010E94F3
:101A1000241E2B833C834D835E83C301B201A50149
:101A200094010E94241E8B819C81AD81BE8182170E
:101A30009307A407B50708F467C088279927DC0136
:101A400088199909AA09BB0984219521A621B721E2
:101A500080932B0490932C04A0932D04B0932E0418
:101A6000C81AD90AEA0AFB0A40912F04509130049F
:101A70006091310470913204411551056105710581
:101A800009F0E4C0C12CD12C760180912B049091F7
:101A90002C04A0912D04B0912E0440912504509166
:101AA00026046091270470912804481759076A0793
:101AB0007B0768F48093250490932604A093270461
:101AC000B093280420912904206420932904917064
:101AD000AA27BB27892B8A2B8B2BB9F18091330442
:101AE00090913404A0913504B09136048C159D0575
:101AF000AE05BF0551F1C0923304D0923404E09298
:101B00003504F092360421C0409121045091220402
:101B100060912304709124044115510561057105FC
:101B200009F03FC040E050E0BA018BE194E00E9430
:101B3000310BAB01BC014130510561057105E9F480
:101B400082E080932A0402E010E0C80126960FB6D6
:101B5000F894DEBF0FBECDBFDF91CF911F910F91E3
:101B6000FF90EF90DF90CF90BF90AF909F908F90BD
:101B70007F906F905F904F9008954F3F9FEF590770
:101B80006907790731F481E080932A0401E010E0CD
:101B9000DCCF40932104509322046093230470937C
:101BA000240440932F0450933004609331047093C5
:101BB000320462CFC818D908EA08FB08880D991DBD
:101BC000AA1DBB1D80932B0490932C04A0932D047D
:101BD000B0932E048091290481FF0FC08BE194E023
:101BE0000E94310BAB01BC01411551056105710526
:101BF00061F4C12CD12C760137C080911B049091E7
:101C00001C040E94BC08AB01BC014F3FAFEF5A0758
:101C10006A077A0709F4B7CF4230510561057105AB
:101C200008F48ECFE981FA8183899489A589B689E0
:101C3000481759076A077B0708F082CF40932F04A3
:101C400050933004609331047093320480912B04DC
:101C500090912C04A0912D04B0912E048C149D041D
:101C6000AE04BF0408F4A6CF80912B0490912C04FD
:101C7000A0912D04B0912E048C0D9D1DAE1DBF1D95
:101C800080932B0490932C04A0932D04B0932E04E6
:101C9000D701C6019170AA27BB27892B8A2B8B2BD2
:101CA00009F4F0CE89819A810E9489066115710537
:101CB0008105910509F444CF29E0F694E794D7947F
:101CC000C7942A95D1F7C60ED71EE81EF91EDDCEA1
:101CD0002F923F924F925F926F927F928F929F923C
:101CE000AF92BF92CF92DF92EF92FF920F931F932A
:101CF000CF93DF9300D000D0CDB7DEB74C017C830B
:101D00006B83FB0111821082CE0101960E94660155
:101D10006C01892B09F014C1C0902A04D12CC11484
:101D2000D10409F00DC18091290480FF5BC180912D
:101D3000250490912604A0912704B0912804409195
:101D40002B0450912C0460912D0470912E04841B5F
:101D5000950BA60BB70B8115F2E09F07A105B10506
:101D600008F03BC17C01A7C040912F045091300482
:101D7000609131047091320480911B0490911C0495
:101D80000E94BC08D1C06F3F3FEF730783079307E2
:101D900039F481E080932A04CC24C394D12CD0C0A0
:101DA00060932F0470933004809331049093320435
:101DB00029803A8040912F04509130046091310481
:101DC00070913204C1010E94890661157105810577
:101DD000910509F4AFC02B013C014A0C5B1C611C4E
:101DE000711C8701012F112706950115110509F4B2
:101DF000BFC0F101818592859501200F311F8217A7
:101E0000930718F48C010A191B09F1018181809351
:101E10001A040115110509F4BCCF9801B301A20100
:101E2000C4010E94E804892B09F0B3CFE981FA814B
:101E300083818823E9F083A594A5A5A5B6A5841977
:101E40009509A609B709A80170E060E08417950715
:101E5000A607B70768F4DC01BA2FAA27BB0FA80DA5
:101E6000B91DBF9680E092E001900D920197E1F7D5
:101E7000102F0027110FE01AF10AEB81FC818081FD
:101E80009181800F911F91838083800E911E80919C
:101E90002B0490912C04A0912D04B0912E04800F5E
:101EA000911FA11DB11D80932B0490932C04A0932E
:101EB0002D04B0932E04E114F10409F441C0809183
:101EC0002B0490912C04A0912D04B0912E04AC0110
:101ED000BD01517066277727452B462B472B09F00C
:101EE0004FC0E981FA81A184B28421E0A21AB1082D
:101EF000AC01BD01E9E07695679557954795EA9560
:101F0000D1F7A422B522A114B10409F051CF892B35
:101F10008A2B8B2B09F028CF609121047091220429
:101F2000809123049091240462307105810591050C
:101F300008F029CF82E080932A0452E0C52ED12CEC
:101F4000C6010F900F900F900F90DF91CF911F91CE
:101F50000F91FF90EF90DF90CF90BF90AF909F9048
:101F60008F907F906F905F904F903F902F9008954B
:101F700040923304509234046092350470923604D7
:101F800080912B0490912C04917020E032E0281B6A
:101F9000390B87012E153F0508F489014091330460
:101FA00050913404609135047091360489819A818E
:101FB0000E947F08892B09F0ECCE69817A81615DEE
:101FC0007F4F80912B0490912C049170680F791FA2
:101FD000A801C4010E94731E4ECF80E092E0A0E0F1
:101FE000B0E0C0CE87E0C82ED12CAACF0F931F93AC
:101FF000CF93DF93EC01FC01E35DFD4F0081118184
:102000009FA59B3E21F0985E923008F04DC00535AB
:102010002AEA120761F448E050E067EB71E0CE0174
:102020008F579F4F0E94661E892B09F447C08AADC7
:102030009BAD9C012150310928233923232BA1F585
:102040008115924089F58CAD882371F190E09C0157
:102050002150310982239323892B31F58DAD9EAD1B
:10206000892B11F18FAD8150990B0297E8F4FE0195
:10207000E05CFF4F80819181892BB1F032968081A5
:1020800091818038910550F4CE01815B9F4F0E9471
:10209000B106611571058140910530F0CB5BDF4FD2
:1020A00088819981892B51F405351A4A51F083E0D2
:1020B00090E0DF91CF911F910F91089590E080E023
:1020C000F8CF82E090E0F5CF2F923F924F925F924F
:1020D0006F927F928F929F92AF92BF92CF92DF9238
:1020E000EF92FF920F931F93CF93DF9300D000D016
:1020F000CDB7DEB7FC01208131813C832B83C684C0
:10210000D784E088F18830E2C30ED11CE11CF11CB9
:10211000C114D10480E2E806F10420F0168A178A7F
:10212000108E118E86899789A08DB18D0097A1059B
:10213000B105B1F13B018F01B701A60151706627CE
:102140007727452B462B472B09F0DEC00196A11DB2
:10215000B11D868B978BA08FB18F4289538964897B
:102160007589EB81FC814115510561057105D9F433
:1021700087819085B0E0A0E0B701A60135E07695B3
:102180006795579547953A95D1F7481759076A07C4
:102190007B0708F4B9C0F801168A178A108E118ED1
:1021A00084E090E024C0818592850197B0E0A0E0B2
:1021B0004601570129E0B694A794979487942A95ED
:1021C000D1F788219921AA21BB21892B8A2B8B2B1E
:1021D00009F09AC0CF010E94BC084B015C01F2E0FB
:1021E0008F169104A104B104C8F482E090E00F902E
:1021F0000F900F900F90DF91CF911F910F91FF9053
:10220000EF90DF90CF90BF90AF909F908F907F9096
:102210006F905F904F903F902F9008952FEF821610
:102220009206A206B20619F481E090E0E0CFEB81BD
:10223000FC8183899489A589B68988169906AA069E
:10224000BB0608F451C0672809F4A5CFF8014289FC
:10225000538964897589C8010E94310B4B015C0167
:1022600087E090E081149104A104B10409F4BFCF88
:10227000F1E08F169104A104B10409F4B6CF2FEF59
:1022800082169206A206B20679F28B819C810E9488
:102290007708892B49F6B501A4018B819C810E94A6
:1022A00089062B013C01EB81FC8143A654A665A65F
:1022B00076A6BF96FA83E98380E092E09C011192B2
:1022C00021503040E1F7312C212CEB81FC818185BC
:1022D00092852816390648F1EB81FC81818592852B
:1022E0002816390609F0A0CFF801828A938AA48AB9
:1022F000B58AB501A4018B819C810E948906F801F1
:10230000668B778B808F918FF801C686D786E08A9F
:10231000F18A8B819C818F9696013170280F391F2D
:10232000338F228F90E080E062CFEB81FC8181814E
:1023300080931A0421E030E0B301A201420D531D45
:10234000611D711D89819A810E949F07892B21F649
:102350003FEF231A330AB9CF0C940E1E2F923F92EF
:102360004F925F926F927F928F929F92AF92BF92A5
:10237000CF92DF92EF92FF920F931F93CF93DF9351
:10238000CDB7DEB7EC970FB6F894DEBF0FBECDBF6A
:10239000F0900601F81609F4C7C3282E21E02F1586
:1023A00008F4EFC0CE0101960E946601892B09F066
:1023B000DEC08091290486FFD0C04091370450913F
:1023C00038046091390470913A0489819A810E949D
:1023D0007F08892B09F0CBC0E0913B04F0913C04CD
:1023E000838580628387409121045091220460910B
:1023F00023047091240420911B0430911C04428F0B
:10240000538FD9012C91233029F4CB01AA27BB2764
:10241000848B958B3091250420912604909127047C
:1024200080912804348F258F968F878F168A178A7C
:1024300081E2808F80E5818F128A138A09811A8157
:1024400081E0F8018383C8010E941E086C01892B7A
:1024500009F07CC0D8018C91833009F05EC01496DD
:102460008C911497813009F058C01196AC9120E0FE
:1024700032E0C8018F96FC01A901119241505040F1
:10248000E1F725E5F801E35DFD4F20832AEA319667
:10249000208322E5F80127A720AB21E621AB31E418
:1024A00032AB42E7ED5EFD4F40833196408331967B
:1024B000308331962083F8015785408931892289FC
:1024C000E95EFD4F508331964083319630833196DB
:1024D0002083F8015385448535852685E55EFD4FCB
:1024E0005083319640833196308331962083F801B2
:1024F000438D548D658D768D4F5F5F4F6F4F7F4F4E
:1025000043A754A765A776A7A0931A0421E030E05B
:102510000E949F07D80114961C92D8011196EC9145
:10252000E0931A04F0E0ED5DFE4F8081CC24C3946B
:10253000D12C80FD0BC00E94800431E020E0892B6B
:1025400009F030E0C32ED22E0E947A048091290433
:102550008F7B80932904CD2851F4CE0101960E94EF
:102560006601892B21F410921C0410921B0463E075
:1025700071E0FF2011F060E071E090E080E00E94E7
:102580006E078FEF80930601B1E0B21508F4CAC25E
:10259000211040C0E3E0F1E0F8ABEFA76FA578A908
:1025A00084ED91E00E946E07892B91F587E091E020
:1025B000222011F085E191E09AA789A7CE018996A2
:1025C0000E945C0697FD1AC0FC01EE0FFF1FE35C42
:1025D000FB4F408051804114510481F0D2012C9175
:1025E0002223E9F01196EC91E0931A04F0E0ED5DFE
:1025F000FE4F208120FD13C022FF13C210921C0445
:1026000010921B046FA578A990E080E00E946E07ED
:1026100080E08BC220E031E038AB2FA7BFCFF201C2
:102620001082818380931A040E946205857031F7BD
:10263000D20113961C928FEF9FEFDC01F20183A76A
:1026400094A7A5A7B6A740E050E0BA01C2010E9436
:102650007F08892B99F6C2010E94F60F82309105FE
:1026600009F044C05201FBE0AF1AFEEFBF0A8E0131
:102670000F5F1F4F62012BECC21A2DEFD20A7801B7
:10268000C5010E94B106D7016D937D938D939D93F3
:102690007D01B0E1AB0EB11CAC14BD0489F778012B
:1026A000E0E1EE0EF11C88248A94982C5401D801A4
:1026B0004D915D916D917D918D01411551056105A2
:1026C000710581F0F201138283A694A6A5A6B6A691
:1026D000C2010E947F08892B29F4C2010E94F60FD3
:1026E000029738F00E151F0511F788CF029708F0F2
:1026F00085CFF20182AD93AD8115924009F07ECF76
:10270000F201EB5BFF4F80809180B12CA12C8114F2
:10271000910439F4C2018D5A9F4F0E94B1064B01BA
:102720005C01D2019B962D913D914D915C919E97BC
:102730002BA73CA74DA75EA7F201878A908EA18E9A
:10274000B28E07AD02838FEF800F823008F056CF34
:1027500014AD812F90E092878187009709F44ECFC6
:102760009C012150310982239323892B09F046CF04
:10277000E05CFF4F6080718018967C926E92179794
:10278000C3018F709927892B09F038CF3296C0800A
:10279000D180F12CE12CC114D10439F4C201815B48
:1027A0009F4F0E94B1066B017C01D201DD96ED9135
:1027B000FC91309709F422CFA02FB0E0A50194013D
:1027C0000E94461E6DAB7EAB8FAB98AF9F0150E071
:1027D00040E029AF3AAF4BAF5CAFC301B4E0969590
:1027E0008795BA95E1F7280F391F411D511DDA0170
:1027F000C9012DA93EA94FA958AD280F391F4A1F5D
:102800005B1F29AB3AAB4BAB5CABC216D306E406FD
:10281000F50608F4F3CEC701B601621B730B840BF7
:10282000950B212F30E050E040E00E94241E21153E
:1028300031054105510509F4E1CE263F8FEF3807F8
:1028400048078FE0580708F0D9CE03E010E0263F94
:10285000BFEF3B074105510550F402E010E0263F71
:10286000FFE03F074105510510F401E010E0690168
:102870007A0192E0C90ED11CE11CF11CD2015396E1
:10288000CD92DD92ED92FC9256972BA53CA54DA5DD
:102890005EA55B962D933D934D935C935E9789ADBA
:1028A0009AADABADBCAD280F391F4A1F5B1F29AFD6
:1028B0003AAF4BAF5CAFD2015F962D933D934D93F2
:1028C0005C9392974BA55CA56DA57EA589A99AA955
:1028D000ABA9BCA9480F591F6A1F7B1FD20197964D
:1028E0004D935D936D937C939A970330110509F096
:1028F00035C1F201E75AFF4F80819181892B09F0A0
:102900007DCE672809F07ACEC201855A9F4F0E947A
:10291000B106F20163A374A385A396A3A2E0CC0C35
:10292000DD1CEE1CFF1CAA95D1F72FEFC20E21E093
:10293000D21EE11CF11C59E0F694E794D794C79499
:102940005A95D1F78C149D04AE04BF0408F456CEFA
:102950008FEF9FEFDC01F2018787908BA18BB28B09
:1029600083879487A587B68780E884830330110521
:1029700009F048C0E15AFF4F80819181019709F029
:1029800041C04BA55CA56DA57EA54F5F5F4F6F4F06
:102990007F4FC2010E947F08892BA1F5D2011496B6
:1029A0001C92F201E35DFD4F8081918185359A4A49
:1029B00049F5C2018F960E94B10662357245814683
:1029C000914401F5C2018D5E9D4F0E94B1066237B0
:1029D000724781449146B1F4C201895E9D4F0E94C5
:1029E000B106D2011F966D937D938D939C93529760
:1029F000C201855E9D4F0E94B106F2016387748714
:102A000085879687D2010C938091D2019091D30152
:102A100001969093D3018093D20116969C938E9346
:102A200015975A824982E9A5FAA58F0181918F32C3
:102A3000E1F38C35D1F31F82188619861A86F801C6
:102A400080814201FFE28F0E911C803208F00BC1A1
:102A500080E888A7CE0101960E947A09892B09F0A7
:102A6000CDCD88A587FDCACD8D81817109F0C6CDF8
:102A7000F20183A594A5A5A5B6A5809337049093EC
:102A80003804A0933904B0933A04EB8DFC8DF09395
:102A90003C04E0933B04428D538D70E060E0D20132
:102AA0008C91833059F40489158930E020E0980135
:102AB00011270027402B512B622B732B40932104AD
:102AC000509322046093230470932404CF014C9606
:102AD0000E94B10660932504709326048093270416
:102AE0009093280450921C0440921B04F2018581AB
:102AF000968190931E0480931D0483E080932904A3
:102B000010922A0410923304109234041092350467
:102B10001092360410922B0410922C0410922D0463
:102B200010922E042092060181E0EC960FB6F894E4
:102B3000DEBF0FBECDBFDF91CF911F910F91FF90F0
:102B4000EF90DF90CF90BF90AF909F908F907F904D
:102B50006F905F904F903F902F900895672809F4F1
:102B60004DCD89AD9AADABADBCAD2DA93EA94FA958
:102B700058AD820F931FA41FB51FF20183A394A326
:102B8000A5A3B6A30230110529F4CC0CDD1CEE1C64
:102B9000FF1CCBCEA3E0B0E0A70196010E94461E29
:102BA0009695879577956795F1E0CF22DD24EE2401
:102BB000FF24C60ED71EE81EF91EB7CE2EE28217DE
:102BC00009F4C2C0EA14FB0408F018CD87FF06C060
:102BD000E82FEF77F0E0EB5DFE4F3080632D70E083
:102BE00080EC91E00E94831E892B09F007CD8FE9CC
:102BF000830D8A3110F430EE330EEDE1F0E0EC0F8E
:102C0000FD1FEE0DFF1D3082A7014F5F5F4F7A0160
:102C10003AC080E065C034E0C32ED12C88A5CD2811
:102C200009F0ECCC82FD1DCF8D8184FFE7CCEF85D0
:102C3000F889F170E80DF91D428D538D70E060E068
:102C4000D2018C91833059F484899589B0E0A0E059
:102C5000DC0199278827482B592B6A2B7B2B4F8324
:102C6000588769877A874BE050E060E270E0CE01D8
:102C70004D960E947C1E3801F12CE12CD12CC12CE8
:102C800048E0A42EB12C2FEFC21AD20AD3018D91A5
:102C90003D01382EB0E2B81788F4EFE28E1719F034
:102CA000FCE58F138BCFF801EC0DFD1D6F01C01AF1
:102CB000D10A91919F32D1F39C35C1F3EF2809F4E9
:102CC0009DCC9D8D953E11F455E05D8F0C0D1D1D25
:102CD000813228F0D8018C9181320CF09ACF84E0B7
:102CE00088A7E980FA80CE0101960E947A096C01DA
:102CF000892B09F093CF4F89588D698D7A8DC70143
:102D00000E947F086C01892B09F088CF8B8D9C8DE8
:102D1000FC012081222309F47ECF2385322F3F73CB
:102D20003D8323FD0AC04BE050E0BE01635E7F4F50
:102D30000E94661E892B09F471CF70E060E0CE011D
:102D400001960E946410D3CFEBE0AE16B10409F4F3
:102D500055CC88E0E82EF12C9BE0A92EB12C93CF26
:102D6000CF92DF92FF920F931F93CF93DF93CDB754
:102D7000DEB7C250D2400FB6F894DEBF0FBECDBF53
:102D800080E00E944D07FE0131966E018FEFC81A58
:102D90008DEFD80A0E2FFF2E3399FECF429842981E
:102DA00042984298429889B18193429AEC15FD0568
:102DB00099F780910B0487FF30C0109108041130FF
:102DC00028F0133090F081E0133081F1CE5FDD4FB9
:102DD0000FB6F894DEBF0FBECDBFDF91CF911F912C
:102DE0000F91FF90DF90CF900895812F0E94EA0607
:102DF0004091040450910504609106047091070409
:102E000081E0113009F080E080931A0421E030E085
:102E1000802F9F2D0E949F07D9CF8091030481307E
:102E2000A8F28330E0F0833089F680E00E94AE1192
:102E3000882361F20E94D406609104047091050415
:102E400080910604909107040E94920C892B09F04E
:102E5000BDCFB601802F9F2D0E94FE18B7CF0E94D4
:102E6000EA064091040450910504609106047091B3
:102E7000070410921A04CACF1F93CF93DF93CDB7E4
:102E8000DEB7C250D2400FB6F894DEBF0FBECDBF42
:102E90000E9430070E945C07882309F445C0809196
:102EA0000B0487FF4CC010910804113030F0133030
:102EB000F8F081E0133009F44DC080E00E944D0726
:102EC0008FEF8AB9FE0131969E012F5F3D4F3199F8
:102ED000FECF81918BB98BB940984098409840982B
:102EE0004098409A2E173F0791F71BB81AB81CC09C
:102EF000812F0E94EA0640910404509105046091DC
:102F000006047091070481E0113009F080E080939D
:102F10001A0421E030E0CE0101960E94E804892BDA
:102F200061F287E20E944D07CE5FDD4F0FB6F89445
:102F3000DEBF0FBECDBFDF91CF911F91089580916D
:102F40000304813008F4B9CF833048F1833009F0AD
:102F5000B4CF80E00E94AE11882319F30E94D406FA
:102F60006091040470910504809106049091070417
:102F70000E94920C892BA9F6BE016F5F7D4FCE0196
:102F800001960E94680E892B61F6CF5FDD4F888124
:102F90009981C150D2408115924019F68ECF0E947E
:102FA000EA06409104045091050460910604709172
:102FB000070410921A04ADCF80910B0487FF0FC055
:102FC000809108048130C8F0833030F0833009F0FC
:102FD00008958FEF0E94AE11109208040895809119
:102FE0000304813050F0833030F0833009F00895CD
:102FF0008FEF0E94AE11109203040895CF93809139
:103000000B0487FF36C08091080481111FC0C09156
:103010000C04CF3F81F480910304811117C01092FA
:103020001A040E946205811111C082E08093080495
:10303000809303040BC0C1110BC0C1E0C0931A04FC
:103040000E946205811102C0C0930804CF910895C7
:103050008FEF0E94AE116C2F85E191E00E940F0767
:1030600081E00E94AE11882389F383E080930804F5
:10307000EDCF809103048111E9CFC0910D048091BF
:103080000804CF3F51F2C11108C010921A040E94E7
:1030900062058111DBCF81E0CBCF8FEF0E94AE11B3
:1030A0006C2F87E091E00E940F0780E00E94AE1134
:1030B000882361F283E0BCCF1F920F920FB60F926C
:1030C00011242F933F938F939F93AF93BF9380913E
:1030D000160490911704A0911804B091190430912E
:1030E000150423E0230F2D3758F50196A11DB11DBE
:1030F000209315048093160490931704A09318044A
:10310000B09319048091110490911204A0911304BA
:10311000B09114040196A11DB11D809311049093E8
:103120001204A0931304B0931404BF91AF919F9124
:103130008F913F912F910F900FBE0F901F90189578
:1031400026E8230F0296A11DB11DD2CF1F920F9228
:103150000FB60F9211242F933F934F935F936F936A
:103160007F938F939F93AF93BF93EF93FF9381E4EC
:1031700094E00E946602FF91EF91BF91AF919F9101
:103180008F917F916F915F914F913F912F910F9010
:103190000FBE0F901F9018951F920F920FB60F92AF
:1031A00011242F938F939F93EF93FF93E0915104FA
:1031B000F09152048081E0915704F091580482FD0F
:1031C0001BC0908180915A048F5F8F7320915B04A4
:1031D000821741F0E0915A04F0E0EF5BFB4F958FCE
:1031E00080935A04FF91EF919F918F912F910F90AF
:1031F0000FBE0F901F9018958081F4CF2F923F92B1
:103200004F925F926F927F928F929F92AF92BF92F6
:10321000CF92DF92EF92FF920F931F93CF93DF93A2
:1032200000D000D0CDB7DEB75C017C836B83FB019F
:1032300011821082CE0101960E9466016C01892BD9
:1032400009F063C1C0902A04D12CC114D10409F043
:103250005CC18091290481FFCAC180912B049091A7
:103260002C04A0912D04B0912E047C01E094F094E4
:1032700081159E4FAF4FBF4F08F0F6C0E12C92E092
:10328000F92EF2C040912F04509130046091310426
:10329000709132042BC1613071058105910539F4BB
:1032A00082E080932A0462E0C62ED12C2EC16F3FAB
:1032B0003FEF73078307930739F481E080932A0473
:1032C000CC24C394D12C21C160932F04709330047B
:1032D00080933104909332040091210410912204D0
:1032E0002091230430912404012B022B032B41F461
:1032F0006093210470932204809323049093240408
:1033000089819A81FC0103A514A525A536A54091C4
:1033100033045091340460913504709136040417DD
:1033200015072607370721F40E947708892B29F60D
:1033300089809A8040912F0450913004609131042B
:1033400070913204C4010E948906611571058105DE
:10335000910509F4A5CF2B013C01420C531C611CC3
:10336000711C8701012F112706950115110509F41C
:10337000E4C0F401818592859101200F311F8217ED
:10338000930718F48C0102191309F40181818093C9
:103390001A040115110509F490CF9801B301A20197
:1033A000C5010E949F07892B09F087CF89819A81E7
:1033B000FC0143A554A565A576A5441955096609E0
:1033C00077092801712C612C441555056605770590
:1033D00088F4DC019F96FA01FE2FEE27FF0FEA0D1D
:1033E000FB1D20E032E001900D9221503040D9F7D2
:1033F000FC011382102F0027110FE01AF10AEB8154
:10340000FC8180819181800F911F91838083A00E28
:10341000B11E80912B0490912C04A0912D04B091A9
:103420002E04800F911FA11DB11D80932B0490933A
:103430002C04A0932D04B0932E04409125045091A8
:1034400026046091270470912804481759076A07D9
:103450007B0710F4AC01BD01409325045093260472
:103460006093270470932804E114F10409F448C020
:1034700080912B0490912C04A0912D04B0912E04E6
:10348000AC01BD01517066277727452B462B472B92
:1034900009F07CC0E981FA812184328421E0221A7A
:1034A0003108AC01BD01E9E07695679557954795E0
:1034B000EA95D1F7242235222114310409F020CFD6
:1034C000892B8A2B8B2B09F0DDCE60912104709122
:1034D00022048091230490912404611571058105D3
:1034E000910509F0D8CE40E050E0BA018BE194E0BC
:1034F0000E94310B611571058105910509F0CBCE54
:1035000080912904806480932904C6010F900F9054
:103510000F900F90DF91CF911F910F91FF90EF903F
:10352000DF90CF90BF90AF909F908F907F906F90E3
:103530005F904F903F902F90089540912B045091B1
:103540002C0460912D0470912E048091250490919B
:103550002604A0912704B0912804481759076A0748
:103560007B0760F0C4010E947708892B09F0A5CE83
:10357000E981FA8143A654A665A676A64092330453
:1035800050923404609235047092360480912B047A
:1035900090912C04917020E032E0281B390B8701B8
:1035A0002E153F0508F489014091330450913404ED
:1035B000609135047091360489819A810E947F0858
:1035C000892B09F07ACE29813A81215D3F4F809184
:1035D0002B0490912C049170A801B501820F931FC8
:1035E0000E94731EE981FA8131E0338306CF87E0C0
:1035F000C82ED12C8ACFE1E4F4E01382128288EE47
:1036000093E0A0E0B0E084839583A683B78389EA42
:1036100091E09183808385EC90E09587848784ECAA
:1036200090E09787868780EC90E0918B808B81EC8F
:1036300090E0938B828B82EC90E0958B848B86EC70
:1036400090E0978B868B118E128E138E148E88E0ED
:103650008093DE040895CF93DF9300D000D000D094
:10366000CDB7DEB7789484B5826084BD84B58160BF
:1036700084BD85B5826085BD85B5816085BD80913D
:103680006E00816080936E001092810080918100B5
:1036900082608093810080918100816080938100AD
:1036A000809180008160809380008091B10084606F
:1036B0008093B1008091B00081608093B0008091D0
:1036C0007A00846080937A0080917A00826080938F
:1036D0007A0080917A00816080937A0080917A00EC
:1036E000806880937A001092C10088B18F6088B999
:1036F00087B1856087B987B1857F87B988B18F60C9
:1037000088B98091C10087748093C1001BB81AB832
:1037100081E494E00E94D502E0915304F0915404B6
:1037200080818F7E8083E0915304F09154048081E6
:10373000877F8083E0915304F091540480818F77D8
:103740008083E0915304F091540480818F7D8083C5
:1037500080915B0480935A048091C10087748093A8
:10376000C10090E080E00E94AC118F3F09F440C09E
:1037700081E090E00E94AC1180930D0482E090E023
:103780000E94AC1180930C0410920B040E94FE174F
:1037900080E880930B040E94FE171BB81AB84424DB
:1037A0004A946E0127E0C20ED11C67E0562E70E5E8
:1037B000772EE0E0AE2EE0E0BE2E5FE3652E0E94A5
:1037C00026078C3A09F0B6C00E942607182F8830C9
:1037D00040F5863008F0C3C0823009F4B7C060F409
:1037E000882309F49DC0813009F4A2C087E29BC1FF
:1037F00010920D0481E0C6CF843009F4B0C008F403
:103800008FC00E94300780E00E944D0780910D0418
:103810000E944D0780910C040E944D078EEF91E0AD
:10382000E8C0823109F49BC108F04EC0803109F430
:10383000E3C08131D9F680910E04882309F48BC14D
:103840000E942607882E0E942607982EF12CE12C34
:1038500086E290E00E949E038C01892B29F086E28B
:1038600090E00E949E037C010E151F0589F7012B35
:1038700009F46CC162E070E0CE0101960E94C603BB
:1038800080E40E94B8030981802F90E0982F882758
:103890000A810250110B080F191F8016910608F0BB
:1038A00048C190E080E00E941A0488E290E00E9403
:1038B0009E03B801680F791F88E290E00E941E0302
:1038C00080E40E94B80336C08D3819F0803A09F0C0
:1038D0008DCF0E94300780E00E944D0710921004A7
:1038E00010920F044AB890E080E03199FECFE09149
:1038F0000F04F0911004E80FF91FEE58FF4FE49108
:10390000EBB9EBB940984098409840984098409A5D
:1039100001968115F2E09F0741F71BB81AB80AC05B
:103920000E9430070E945C07882321F080E0FBC0E2
:103930000E943C17A114B10409F441CF0E94520225
:10394000882309F43ACF0E94000037CF0E94300745
:103950000E945C07882371F30E94B016EBCF0E948F
:10396000300740E8F42EF0920B040E94DC1710920E
:103970000B040E94DC1700910F0480911004009347
:103980000D0480930C04163009F43CC181E090E0F2
:103990000E94AC11081729F0602F81E090E00E948E
:1039A000161E82E090E00E94AC1160910C04861714
:1039B00021F082E090E00E94161E90E080E00E94DC
:1039C000AC118F3F29F460E090E080E00E94161E69
:1039D00080E880930B040E94FE1710920B040E9453
:1039E000FE1780E00E944D07143009F4A3CF80E059
:1039F00092E00E94C3069ECF8E010F5F1F4F780199
:103A00000E942607F80181938F01CE16DF06C1F7C9
:103A100080910E04882381F080E10E94B8034FE179
:103A200062E070E088E00E94FA0263E070E088E003
:103A30000E947C038111F9CF86E0F701AFEDB4E07D
:103A400001900D928A95E1F78091DE0490E0FC01EF
:103A5000E25BFD4F2491FC01E65CFD4FE491EE2317
:103A6000A1F08E2F90E0880F991FFC01E859FF4FBD
:103A7000A591B491FC01E05DFD4F859194918FB7C4
:103A8000F894EC912E2B2C938FBF61E08091DE0493
:103A90000E949001F89484B1876084B955B87CBCC9
:103AA00011E01DBD84B18F6284B965B8789440E897
:103AB00070E060E080E00E94FA0270E060E080E088
:103AC0000E947C0326E030E04FED54E069E070E0B6
:103AD00080E00E94320340E16EE170E088E00E94E5
:103AE000FA0240E16FE170E088E00E94FA0226E00D
:103AF00030E04FED54E069E070E080E00E94320376
:103B000044E070E060E088E00E94FA0281E00E94F8
:103B1000B80363E070E088E00E947C03823431F0F7
:103B200010920E0481E00E944D0704CF10930E0402
:103B3000FDCEC8010E941A040115110509F4C0CE7A
:103B4000B80190E080E00E94C603BACE90E080E029
:103B50000E941A04EFCE80E00E944D07E7CE8091CC
:103B60000E04882309F4E2CE0E942607082F10E0F5
:103B70000E942607182B912C812C80E290E00E9455
:103B80009E037C01892B29F080E290E00E949E0335
:103B90004C01E814F90489F763E070E088E00E94C2
:103BA0007C03882309F4C2CEE016F10620F3011548
:103BB000110599F084E290E00E949E037C01980137
:103BC00050E040E0BC0180E10E943203B8016E0D7C
:103BD0007F1D84E290E00E941E0380E20E94B803F1
:103BE00062E070E088E00E947C0384FF07C040E14F
:103BF00062E070E088E00E94FA0298CE83FFF0CF86
:103C000048E0F6CFF0920B040E94FE1710920B04CE
:103C10000E94FE1780E00E944D07E9CEF999FECF81
:103C200092BD81BDF89A992780B50895262FF999FC
:103C3000FECF1FBA92BD81BD20BD0FB6F894FA9A8F
:103C4000F99A0FBE01960895A1E21A2EAA1BBB1B7A
:103C5000FD010DC0AA1FBB1FEE1FFF1FA217B30758
:103C6000E407F50720F0A21BB30BE40BF50B661F6E
:103C7000771F881F991F1A9469F760957095809532
:103C800090959B01AC01BD01CF0108950E94571E84
:103C9000A59F900DB49F900DA49F800D911D1124A0
:103CA0000895EE0FFF1F0590F491E02D0994A29F57
:103CB000B001B39FC001A39F700D811D1124911D00
:103CC000B29F700D811D1124911D0895FB01DC012F
:103CD00004C08D910190801921F441505040C8F7E3
:103CE000881B990B0895FB01DC0102C001900D9225
:103CF00041505040D8F70895DC0101C06D93415008
:103D00005040E0F70895FC018191861721F0882347
:103D1000D9F7992708953197CF010895F894FFCFE7
:103D2000313A00303A00FF303A424C4B4445565845
:103D3000582E504F00313A424C4B44455658582E5D
:103D4000504F000101809A45418E418F8045454585
:103D50004949498E8F9092924F994F555559999A4A
:103D60009B9C9D9E9F41494F55A5A5A6A7A8A9AA82
:103D7000ABACADAEAFB0B1B2B3B4B5B6B7B8B9BA1B
:103D8000BBBCBDBEBFC0C1C2C3C4C5C6C7C8C9CA0B
:103D9000CBCCCDCECFD0D1D2D3D4D5D6D7D8D9DAFB
:103DA000DBDCDDDEDFE0E1E2E3E4E5E6E7E8E9EAEB
:103DB000EBECEDEEEFF0F1F2F3F4F5F6F7F8F9FADB
:103DC000FBFCFDFEFF000000008802E8011502D5A3
:103DD0000246022402380246415433322020200099
:103DE0002A2B2C3A3B3C3D3E5B5D7C223F7F000012
:00000001FF
